{
  "contractName": "ProductTracker",
  "abi": [
    {
      "anonymous": false,
      "inputs": [
        {
          "indexed": false,
          "internalType": "uint256",
          "name": "productId",
          "type": "uint256"
        },
        {
          "indexed": false,
          "internalType": "string",
          "name": "hubId",
          "type": "string"
        },
        {
          "indexed": false,
          "internalType": "uint256",
          "name": "timestamp",
          "type": "uint256"
        }
      ],
      "name": "ProductUpdated",
      "type": "event"
    },
    {
      "inputs": [
        {
          "internalType": "uint256",
          "name": "",
          "type": "uint256"
        },
        {
          "internalType": "uint256",
          "name": "",
          "type": "uint256"
        }
      ],
      "name": "productHistory",
      "outputs": [
        {
          "internalType": "uint256",
          "name": "id",
          "type": "uint256"
        },
        {
          "internalType": "uint256",
          "name": "weight",
          "type": "uint256"
        },
        {
          "internalType": "string",
          "name": "dimensions",
          "type": "string"
        },
        {
          "internalType": "string",
          "name": "photo",
          "type": "string"
        },
        {
          "internalType": "string",
          "name": "video",
          "type": "string"
        },
        {
          "internalType": "string",
          "name": "hubId",
          "type": "string"
        },
        {
          "internalType": "uint256",
          "name": "timestamp",
          "type": "uint256"
        }
      ],
      "stateMutability": "view",
      "type": "function",
      "constant": true
    },
    {
      "inputs": [
        {
          "internalType": "uint256",
          "name": "_id",
          "type": "uint256"
        },
        {
          "internalType": "uint256",
          "name": "_weight",
          "type": "uint256"
        },
        {
          "internalType": "string",
          "name": "_dimensions",
          "type": "string"
        },
        {
          "internalType": "string",
          "name": "_photo",
          "type": "string"
        },
        {
          "internalType": "string",
          "name": "_video",
          "type": "string"
        },
        {
          "internalType": "string",
          "name": "_hubId",
          "type": "string"
        }
      ],
      "name": "updateProduct",
      "outputs": [],
      "stateMutability": "nonpayable",
      "type": "function"
    },
    {
      "inputs": [
        {
          "internalType": "uint256",
          "name": "_id",
          "type": "uint256"
        }
      ],
      "name": "getProductHistory",
      "outputs": [
        {
          "components": [
            {
              "internalType": "uint256",
              "name": "id",
              "type": "uint256"
            },
            {
              "internalType": "uint256",
              "name": "weight",
              "type": "uint256"
            },
            {
              "internalType": "string",
              "name": "dimensions",
              "type": "string"
            },
            {
              "internalType": "string",
              "name": "photo",
              "type": "string"
            },
            {
              "internalType": "string",
              "name": "video",
              "type": "string"
            },
            {
              "internalType": "string",
              "name": "hubId",
              "type": "string"
            },
            {
              "internalType": "uint256",
              "name": "timestamp",
              "type": "uint256"
            }
          ],
          "internalType": "struct ProductTracker.Product[]",
          "name": "",
          "type": "tuple[]"
        }
      ],
      "stateMutability": "view",
      "type": "function",
      "constant": true
    }
  ],
  "bytecode": "0x608060405234801561000f575f80fd5b506110338061001d5f395ff3fe608060405234801561000f575f80fd5b506004361061003f575f3560e01c806310912ccf146100435780633a7d23761461005f57806357a096a114610095575b5f80fd5b61005d600480360381019061005891906108a4565b6100c5565b005b6100796004803603810190610074919061099d565b6101ec565b60405161008c9796959493929190610a64565b60405180910390f35b6100af60048036038101906100aa9190610aed565b61045b565b6040516100bc9190610cd8565b60405180910390f35b5f6040518060e001604052808881526020018781526020018681526020018581526020018481526020018381526020014281525090505f808881526020019081526020015f2081908060018154018082558091505060019003905f5260205f2090600702015f909190919091505f820151815f01556020820151816001015560408201518160020190816101599190610ef2565b50606082015181600301908161016f9190610ef2565b5060808201518160040190816101859190610ef2565b5060a082015181600501908161019b9190610ef2565b5060c0820151816006015550507ff9b1d9170fbe32752353e00d62e5276b143166c75aa974030dddfac2895601fe8783426040516101db93929190610fc1565b60405180910390a150505050505050565b5f602052815f5260405f208181548110610204575f80fd5b905f5260205f2090600702015f9150915050805f01549080600101549080600201805461023090610d25565b80601f016020809104026020016040519081016040528092919081815260200182805461025c90610d25565b80156102a75780601f1061027e576101008083540402835291602001916102a7565b820191905f5260205f20905b81548152906001019060200180831161028a57829003601f168201915b5050505050908060030180546102bc90610d25565b80601f01602080910402602001604051908101604052809291908181526020018280546102e890610d25565b80156103335780601f1061030a57610100808354040283529160200191610333565b820191905f5260205f20905b81548152906001019060200180831161031657829003601f168201915b50505050509080600401805461034890610d25565b80601f016020809104026020016040519081016040528092919081815260200182805461037490610d25565b80156103bf5780601f10610396576101008083540402835291602001916103bf565b820191905f5260205f20905b8154815290600101906020018083116103a257829003601f168201915b5050505050908060050180546103d490610d25565b80601f016020809104026020016040519081016040528092919081815260200182805461040090610d25565b801561044b5780601f106104225761010080835404028352916020019161044b565b820191905f5260205f20905b81548152906001019060200180831161042e57829003601f168201915b5050505050908060060154905087565b60605f808381526020019081526020015f20805480602002602001604051908101604052809291908181526020015f905b82821015610719578382905f5260205f2090600702016040518060e00160405290815f8201548152602001600182015481526020016002820180546104d090610d25565b80601f01602080910402602001604051908101604052809291908181526020018280546104fc90610d25565b80156105475780601f1061051e57610100808354040283529160200191610547565b820191905f5260205f20905b81548152906001019060200180831161052a57829003601f168201915b5050505050815260200160038201805461056090610d25565b80601f016020809104026020016040519081016040528092919081815260200182805461058c90610d25565b80156105d75780601f106105ae576101008083540402835291602001916105d7565b820191905f5260205f20905b8154815290600101906020018083116105ba57829003601f168201915b505050505081526020016004820180546105f090610d25565b80601f016020809104026020016040519081016040528092919081815260200182805461061c90610d25565b80156106675780601f1061063e57610100808354040283529160200191610667565b820191905f5260205f20905b81548152906001019060200180831161064a57829003601f168201915b5050505050815260200160058201805461068090610d25565b80601f01602080910402602001604051908101604052809291908181526020018280546106ac90610d25565b80156106f75780601f106106ce576101008083540402835291602001916106f7565b820191905f5260205f20905b8154815290600101906020018083116106da57829003601f168201915b505050505081526020016006820154815250508152602001906001019061048c565b505050509050919050565b5f604051905090565b5f80fd5b5f80fd5b5f819050919050565b61074781610735565b8114610751575f80fd5b50565b5f813590506107628161073e565b92915050565b5f80fd5b5f80fd5b5f601f19601f8301169050919050565b7f4e487b71000000000000000000000000000000000000000000000000000000005f52604160045260245ffd5b6107b682610770565b810181811067ffffffffffffffff821117156107d5576107d4610780565b5b80604052505050565b5f6107e7610724565b90506107f382826107ad565b919050565b5f67ffffffffffffffff82111561081257610811610780565b5b61081b82610770565b9050602081019050919050565b828183375f83830152505050565b5f610848610843846107f8565b6107de565b9050828152602081018484840111156108645761086361076c565b5b61086f848285610828565b509392505050565b5f82601f83011261088b5761088a610768565b5b813561089b848260208601610836565b91505092915050565b5f805f805f8060c087890312156108be576108bd61072d565b5b5f6108cb89828a01610754565b96505060206108dc89828a01610754565b955050604087013567ffffffffffffffff8111156108fd576108fc610731565b5b61090989828a01610877565b945050606087013567ffffffffffffffff81111561092a57610929610731565b5b61093689828a01610877565b935050608087013567ffffffffffffffff81111561095757610956610731565b5b61096389828a01610877565b92505060a087013567ffffffffffffffff81111561098457610983610731565b5b61099089828a01610877565b9150509295509295509295565b5f80604083850312156109b3576109b261072d565b5b5f6109c085828601610754565b92505060206109d185828601610754565b9150509250929050565b6109e481610735565b82525050565b5f81519050919050565b5f82825260208201905092915050565b5f5b83811015610a21578082015181840152602081019050610a06565b5f8484015250505050565b5f610a36826109ea565b610a4081856109f4565b9350610a50818560208601610a04565b610a5981610770565b840191505092915050565b5f60e082019050610a775f83018a6109db565b610a8460208301896109db565b8181036040830152610a968188610a2c565b90508181036060830152610aaa8187610a2c565b90508181036080830152610abe8186610a2c565b905081810360a0830152610ad28185610a2c565b9050610ae160c08301846109db565b98975050505050505050565b5f60208284031215610b0257610b0161072d565b5b5f610b0f84828501610754565b91505092915050565b5f81519050919050565b5f82825260208201905092915050565b5f819050602082019050919050565b610b4a81610735565b82525050565b5f82825260208201905092915050565b5f610b6a826109ea565b610b748185610b50565b9350610b84818560208601610a04565b610b8d81610770565b840191505092915050565b5f60e083015f830151610bad5f860182610b41565b506020830151610bc06020860182610b41565b5060408301518482036040860152610bd88282610b60565b91505060608301518482036060860152610bf28282610b60565b91505060808301518482036080860152610c0c8282610b60565b91505060a083015184820360a0860152610c268282610b60565b91505060c0830151610c3b60c0860182610b41565b508091505092915050565b5f610c518383610b98565b905092915050565b5f602082019050919050565b5f610c6f82610b18565b610c798185610b22565b935083602082028501610c8b85610b32565b805f5b85811015610cc65784840389528151610ca78582610c46565b9450610cb283610c59565b925060208a01995050600181019050610c8e565b50829750879550505050505092915050565b5f6020820190508181035f830152610cf08184610c65565b905092915050565b7f4e487b71000000000000000000000000000000000000000000000000000000005f52602260045260245ffd5b5f6002820490506001821680610d3c57607f821691505b602082108103610d4f57610d4e610cf8565b5b50919050565b5f819050815f5260205f209050919050565b5f6020601f8301049050919050565b5f82821b905092915050565b5f60088302610db17fffffffffffffffffffffffffffffffffffffffffffffffffffffffffffffffff82610d76565b610dbb8683610d76565b95508019841693508086168417925050509392505050565b5f819050919050565b5f610df6610df1610dec84610735565b610dd3565b610735565b9050919050565b5f819050919050565b610e0f83610ddc565b610e23610e1b82610dfd565b848454610d82565b825550505050565b5f90565b610e37610e2b565b610e42818484610e06565b505050565b5b81811015610e6557610e5a5f82610e2f565b600181019050610e48565b5050565b601f821115610eaa57610e7b81610d55565b610e8484610d67565b81016020851015610e93578190505b610ea7610e9f85610d67565b830182610e47565b50505b505050565b5f82821c905092915050565b5f610eca5f1984600802610eaf565b1980831691505092915050565b5f610ee28383610ebb565b9150826002028217905092915050565b610efb826109ea565b67ffffffffffffffff811115610f1457610f13610780565b5b610f1e8254610d25565b610f29828285610e69565b5f60209050601f831160018114610f5a575f8415610f48578287015190505b610f528582610ed7565b865550610fb9565b601f198416610f6886610d55565b5f5b82811015610f8f57848901518255600182019150602085019450602081019050610f6a565b86831015610fac5784890151610fa8601f891682610ebb565b8355505b6001600288020188555050505b505050505050565b5f606082019050610fd45f8301866109db565b8181036020830152610fe68185610a2c565b9050610ff560408301846109db565b94935050505056fea26469706673582212204a4aa8ecaa8fd7fde8352041179a23d7d75a847340c44286f948d5a5a39497d264736f6c63430008140033",
  "immutableReferences": {},
  "source": "// SPDX-License-Identifier: MIT\r\npragma solidity ^0.8.0;\r\n\r\ncontract ProductTracker {\r\n    struct Product {\r\n        uint id;\r\n        uint weight;\r\n        string dimensions;\r\n        string photo;\r\n        string video;\r\n        string hubId;\r\n        uint timestamp;\r\n    }\r\n\r\n    mapping(uint => Product[]) public productHistory;\r\n\r\n    event ProductUpdated(uint productId, string hubId, uint timestamp);\r\n\r\n    function updateProduct(\r\n        uint _id,\r\n        uint _weight,\r\n        string memory _dimensions,\r\n        string memory _photo,\r\n        string memory _video,\r\n        string memory _hubId\r\n    ) public {\r\n        Product memory newEntry = Product({\r\n            id: _id,\r\n            weight: _weight,\r\n            dimensions: _dimensions,\r\n            photo: _photo,\r\n            video: _video,\r\n            hubId: _hubId,\r\n            timestamp: block.timestamp\r\n        });\r\n\r\n        productHistory[_id].push(newEntry);\r\n        emit ProductUpdated(_id, _hubId, block.timestamp);\r\n    }\r\n\r\n    function getProductHistory(uint _id) public view returns (Product[] memory) {\r\n        return productHistory[_id];\r\n    }\r\n}\r\n",
  "sourcePath": "C:\\Users\\Atharv Goyal\\OneDrive\\Desktop\\project folder\\contracts\\ProductTracker.sol",
  "compiler": {
    "name": "solc",
    "version": "0.8.20+commit.a1b79de6.Emscripten.clang"
  },
  "schemaVersion": "3.4.16",
  "updatedAt": "2025-06-29T09:27:21.058Z",
  "networkType": "ethereum",
  "devdoc": {
    "kind": "dev",
    "methods": {},
    "version": 1
  },
  "userdoc": {
    "kind": "user",
    "methods": {},
    "version": 1
  }
}